:020000040800F2
:10000000B1AA010000000000000000000000000094
:1000100000000000000000000000000000000000E0
:1000200000000000000000000000000000000000D0
:1000300000000000000000000000000000000000C0
:1000400000000000000000000000000000000000B0
:1000500000000000000000000000000000000000A0
:100060000000000000000000000000000000000090
:100070000000000000000000000000000000000080
:100080000000000000000000000000000000000070
:100090000000000000000000000000000000000060
:1000A0000000000000000000000000000000000050
:1000B0000000000000000000000000000000000040
:1000C0000000000000000000000000000000000030
:1000D0000000000000000000000000000000000020
:1000E0000000000000000000000000000000000010
:1000F00000000000BC22000800000000000000001A
:1001000000000000000000000000000000000000EF
:1001100000000000000000000000000000000000DF
:1001200000000000000000000000000000000000CF
:1001300000000000000000000000000000000000BF
:1001400000000000000000000000000000000000AF
:100150000000000000000000AC22000873700430B2
:10016000170500001305C5FF8545F605637BB5003F
:1001700089816378B500170500001305C5002E9529
:1001800002859302002073A0027D970200009382F3
:1001900062E773907230973200009382E2FE7390B0
:1001A000C27E73E0C07E973200009382A2F5739006
:1001B0005230971100189381E1B417810018130190
:1001C00061E4174500001305A55A970500189385AB
:1001D00065E3170600181306E63463FAC5008322A8
:1001E000050023A0550011059105E3EAC5FE17059A
:1001F0000018130525339705001893852564637748
:10020000B500232005001105E36DB5FE73F0023241
:10021000173500001305854297300000E780E0FDA8
:1002200097300000E780C04B97100000E780A0B334
:100230000145814597000000E78000251733000045
:100240006700A3FC01A073E00232828073F00232E7
:0402500082800000A8
:100280000000000000000000010203040607080946
:100290000A50726F6772616D2068617320657869BA
:1002A000746564207769746820636F64653A000040
:1002B000307800006E6D690A000000007472617091
:1002C0000A0000001603470069006700610044004F
:1002D0006500760069006300650000003803470090
:1002E000440033003200200055005300420020003B
:1002F0004300440043002000410043004D00200023
:1003000069006E0020004600530020004D006F0081
:1003100064006500000000002E0347004400330025
:1003200032005800580058002D0033002E003000D5
:100330002E0030002D0037007A0038007800390098
:100340007900650072000000120100020200004006
:10035000E9288A0100010102030100005C4700084E
:10036000C4020008DC0200081803000800000000B6
:100370000100000002000000030000004E2A0008F7
:100380007E2C000878280008FE2B0008782800083A
:100390009A2B0008AC280008162D0008082B00082E
:1003A000A6290008442B0008702B00081A2D00080D
:1003B00055534220636F6E6E65637465642E2E2EF6
:1003C0000D0A0D0054696D653A25642C56313A25A5
:1003D000642C56323A25642C56333A25642C563414
:1003E0003A25640D0A0D0000000000000000000026
:1003F00000000000000000000000000000000000FD
:1004000000000000000000000000000000000000EC
:1004100000000000000000000000000000000000DC
:1004200000000000000000000000000000000000CC
:1004300000000000000000000000000000000000BC
:100440000000000000000000232D302B20000000E1
:10045000686C4C00656667454647000030313233B2
:1004600034353637383941424344454600000000B0
:10047000303132333435363738396162636465661A
:1004800000000000357106CF22CD26CB4AC9970067
:100490000000E780407585473ED6B7170140938737
:1004A00007C03ED8BEC2BECCBED63EC18947BEC084
:1004B00093070008BECA9307001013073060BED42C
:1004C000930700203ADABAC4BACEBAD83AC3BEDE2D
:1004D00097200000E78080F297200000E78080F7F7
:1004E0004DC91305803E97200000E780C0E2370425
:1004F00000081305043B97300000E7800043130514
:10050000803E97200000E78000E151466C100A858C
:1005100097300000E78060230A868C001145971011
:100520000000E78000C11305400697200000E78027
:1005300080DE94001146894505451304043B97105D
:100540000000E78040BD814451048C0011459710A4
:100550000000E78020A075D98C001145971000009D
:10056000E780809497000000E780E067AA4756572D
:1005700086563646B30595402A8922859730000075
:10058000E780A03A014597300000E78060E7CA8421
:100590006DBF1305400697200000E780C0D72DBF30
:1005A000F3670430828017030000670003680111BD
:1005B00006CE22CC32C42A842EC697000000E780E3
:1005C000A065B245228597000000E780606822465A
:1005D00022856244F240B28505611703000067007E
:1005E000A36CB707014083A607401347F5FFF98EB8
:1005F00023A0D74083A64740F98E23A2D74083A6E5
:100600008740F98E23A4D74083A6C740F98E23A63E
:10061000D74081CD85466380D50285476300F604C7
:100620000DC289476309F604828083A60740C98EFC
:1006300023A0D740DDB783A64740C98E23A2D74069
:10064000E9BFB707014083A68740558D23A4A74083
:1006500083A6C740758F23A6E7408280B707014075
:1006600083A68740758F23A4E74003A7C740598D11
:1006700023A6A7408280B707014003A78740498F80
:10068000DDB737070140832707405D8D2320A74052
:100690008280B707014023AAA740828093F7050113
:1006A00093F8F50099C3B3E8C8008147054EBD4EE5
:1006B000130F8002930F800421433316FE00758EC2
:1006C0001DC213972700832205003398EE001348BC
:1006D000F8FF337858003397E800336707016399D0
:1006E000E50550C918C18507E39967FC054EBD4E65
:1006F000130F8002930F800441433316FE00758E62
:1007000005C6139727000117832245003398EE0092
:100710001348F8FF337858003397E8003367070130
:10072000639CE50150C958C18507E39867FC828046
:10073000E39AF5FB10C97DB7E397F5FF10C9E5B75C
:1007400019C20CC982804CC9828008456D8D333531
:10075000A0008280B7170240135765003E971443EC
:100760008547B397A700D58F1CC38280B716024078
:10077000DC42370740FF7D17F98F5D8DC8C282804C
:100780007971B705000822D441462A84938505284B
:10079000080806D697300000E78020FBB70703045F
:1007A0009387172002C03EC202C43EC637170240DC
:1007B0005C43894689838D8B6397D70E5C43939600
:1007C000F70063D606065C579396F70063DC0604D1
:1007D0005C57585791832183BD8B3D8B93861700BF
:1007E0000907C5476313F7005147B7177A00938786
:1007F0000720B3D7D702B387E7023717024058570D
:100800003D8B050733D7E702B7160240DC42D442DE
:10081000C98313962600BD8B6350060293E7070138
:1008200085070DA0B7177A0093870720F9B7B71788
:100830003D0013870790C9BFBD46E383D7FE8907F4
:10084000638DD704B387E702B7160240D842101071
:1008500011833D8B3297034507FFD84233D5A7005C
:1008600021831D8B3297034607FED84214102D8337
:100870001D8B36978546034787FE630CD40005CC55
:1008800089476307F4028D473355E5006303F4009D
:100890000145B2502254456182809947B307F7025F
:1008A0000583BA9755B7B7177A009387072069BFB2
:1008B0003355C500F9BF3E85E9BFB71702409843DD
:1008C000B706FFE0B1061367170098C3D843758FCA
:1008D000D8C39843B706F7FEFD16758F98C39843A3
:1008E000B706FCFFFD16758F98C3D843B70601DF26
:1008F000FD16758FD8C323A607029843B706F7EAFB
:10090000FD16758F98C33707FF0098C7944341675A
:10091000D98E94C39307F7FF3717024014431396F9
:10092000E60063440600FD17F5FBB7170240984345
:100930009316E70063C3060001A0D843B706C4DFDF
:10094000FD16D8C3D843D8C3D84313670740D8C3CC
:10095000D843758FD8C3D843B7062920558FD8C33D
:10096000D857BD76758FD8D7D857C166938616F1FC
:10097000558FD8D79843B7060004558F98C3B7173B
:100980000240984393164700E3DD06FE9843B706FE
:100990000010558F98C3B71702409843931627004D
:1009A000E3DD06FE9843B7060001558F98C3B717DD
:1009B0000240984393166700E3DD06FED843719B1F
:1009C000D8C3D84313672700D8C3371702405C4306
:1009D000A18BF5DF8280371702405C433706002089
:1009E000854689838D8B130606506386D70081C7A1
:1009F00089466388D700B7177A00938707201CC2FF
:100A000082805C439396F70063DB06065C579396FF
:100A1000F70063D106065C5758579183BD8B21833D
:100A2000938617009377F70013872700C547631352
:100A3000F7005147B7177A0093870720B3D7D7023B
:100A4000B387E7023717024058573D8B0507B3D7E6
:100A5000E702B7160240D842D44249839395260054
:100A60003D8B63D305021367070105073307F702C0
:100A700018C28280B7177A0093870720E1B7B717AB
:100A80003D0093870790F1B7BD46E300D7FE090705
:100A9000E31ED7FC19473387E7028583BA9785B7EA
:100AA0007971B705000822D47D462A8493850529EB
:100AB0000A8506D697300000E78020C979468A85E6
:100AC000094597300000E78080FCA2850945970022
:100AD0000000E7808009B705000805469385052CCE
:100AE000094597300000E78080FA01A07D5582809B
:100AF000011106CE2EC697300000E780C0F801C96C
:100B0000B24589670145DCC1F240056182807D55AF
:100B1000E5BF7D15133525008280411106C697304B
:100B20000000E78040F6B240133515003305A040C1
:100B3000410182807D55828037070020130747508E
:100B40001C43B7160020938686833E95636BD500C1
:100B5000B77600209386060063E5A60008C33E85AD
:100B60008280FD57EDBF79714ECEAE89B705000882
:100B700009469385052B22D426D24AD052CC56CA98
:100B800006D62A89714497300000E78040F03D4A3C
:100B9000A54AF154B3178A00B3F73701B3D78700DA
:100BA00093F7F70F63ECFA029387070393F7F70FB6
:100BB00005469305F1004A857114A307F1009730AB
:100BC0000000E780C0ECE31794FCB250225492542A
:100BD0000259F249624AD24A45618280938777037B
:100BE000F1B7B70700D1D8438843CC43E39DE5FE76
:100BF0008280B70700D223800700A3850700120573
:100C0000B71700D23E9563E3A700828023A00700B8
:100C1000C107D5BFB71700D285070A053E9585479E
:100C20002300F5008280370700D2834707000605BE
:100C3000798993F7170E5D8D2300A7008280B7078F
:100C400000D203C5070005813D898280411122C47D
:100C500026C206C62A84AE8497000000E78060FEA4
:100C60009147114763E3A7002A87371500D20A048A
:100C70000D052295834705009376F70FA145B3979D
:100C8000E70093F7F70F958DB394B400B3D7E7401F
:100C9000C58F93F7F70F2300F500B240224492442A
:100CA00041018280011122CC2EC606CE2A849700F3
:100CB0000000E78000F98D47814563E9A7023717F7
:100CC00000D20A040D07229783470700B245A146C8
:100CD0003385A6409205B3D7A74093F5F50FB39798
:100CE000A700CD8F93F7F70F2300F700F24062447F
:100CF0002E8505618280F327503093F707FC93E738
:100D00003700739057308280B705000841111546AF
:100D10009385452B054506C697300000E78020D710
:100D2000054597000000E780E0D741119347F5FFA4
:100D300022C406C6139747012A8409E797000000DA
:100D4000E780C0FCB705000815469385C52B05450F
:100D500097300000E780A0D3228597000000E7804D
:100D600060D4411106C697000000E78040B5130526
:100D7000700597000000E78000E897000000E7801A
:100D8000C0F7B240410117F3FFFF6700034C8280B8
:100D9000AA85370500201305457D1703000067006D
:100DA0000344011122CC26CA4AC806CEAA840144B3
:100DB000514963489400F2406244D244424905617B
:100DC0008280330524032EC605042E95970000006B
:100DD000E780C042B245F1BF011122CC26CA4AC801
:100DE00006CEAA840144514963489400F24062440B
:100DF000D244424905618280330524032EC605048E
:100E00002E9597000000E780603EB245F1BF7971F2
:100E100022D426D24AD04ECE06D6AA842E890144A8
:100E2000D14963499400B250225492540259F24974
:100E30004561828033053403B28532C605044A9584
:100E400097000000E780A0393246E1BF011126CAB1
:100E50004AC806CE22CC2A89814463C82401F240C4
:100E60006244D244424905618280C0452E852EC627
:100E700097000000E7808039B2450604418DC8C55F
:100E80008504D105D9BFAA853705002041115146F7
:100E90001305457D06C697300000E780008BB24001
:100EA00041018280011126CA4EC6AA84AE8901453D
:100EB00022CC06CE4AC81384C90097000000E78000
:100EC00060ED2287814763CE97046D490545970001
:100ED0000000E78020EC97000000E780C034CE855A
:100EE000268597000000E780A0F601457D19970050
:100EF0000000E78020EA97000000E780C032E31797
:100F000009FCA2870147634397020147B7068000A7
:100F100063459702F2406244D2444249B2490561B6
:100F20008280232007008507510771BF944305077E
:100F3000D1078D8623A6D7FEF9B71C4013968700EC
:100F400063550600B58F958F1CC005075104C9B7BE
:100F5000797122D426D24AD04ECE06D62A890144AF
:100F60008544D149634A2401B2502254268502594E
:100F70009254F24945618280330534032EC62E9582
:100F800097000000E7808028B24511C18144050424
:100F9000D1BF011126CAAE844EC6B285AA89268564
:100FA00006CE22CC4AC8328452C456C297000000F2
:100FB000E78080EF054597000000E780A0DDA2856F
:100FC000268597000000E78060E10546A28526851A
:100FD00097000000E780E0E397000000E780A0248E
:100FE000014597000000E780E0DA97000000E78005
:100FF0008023054597000000E780C0D997000000D6
:10100000E7806022014597000000E780A0D81949D9
:1010100097000000E7802021930A50067D5A05457D
:1010200097000000E78000D733D62A41058AA285C1
:10103000268597000000E780C0DD97000000E7806C
:10104000801E01457D1997000000E780A0D497001D
:101050000000E780401DE31449FD054597000000AE
:10106000E78040D397000000E780E01B0145970030
:101070000000E78020D21D4997000000E780A01AF9
:101080007D5A054597000000E780C0D033D629413E
:10109000058AA285268597000000E78080D7970003
:1010A0000000E780401801457D1997000000E780A7
:1010B00060CE97000000E7800017E31449FDA28589
:1010C000268597000000E78000CE054597000000C8
:1010D000E78040CC97000000E780E01401459700CE
:1010E0000000E78020CB97000000E780C013410498
:1010F000814763CB9700F2406244D2444249B249EF
:10110000224A924A056182802300340185075104F6
:10111000CDB78A051205328793F7C500137505030D
:101120003686BA855D8D170300006700C3E6397106
:101130005AD02A8B084622DC2E8426DA4AD84ED68C
:1011400052D456D206DEB284832A0600032A460011
:101150009309840097F0FFFFE78000600149634A2C
:101160006905D6860D46C145528597F0FFFFE78099
:101170002053014963486905D6855285014697F099
:10118000FFFFE780205CA68551460A859720000076
:10119000E780A05B0A8597000000E78000CFF2504F
:1011A0006254D2544259B259225A925A025B216176
:1011B000828003A509000509D10997F0FFFFE780A8
:1011C000A05971BF144048400D46914597F0FFFF6C
:1011D000E780004D0509510471BF2E860C4148413E
:1011E00017F3FFFF67000356144148410D46C14500
:1011F00017F3FFFF6700C34A144148410D4691456C
:1012000017F3FFFF6700C3490C414841411106C66F
:1012100097F0FFFFE780A053B2401375F50F41012F
:101220008280011122CC4EC606CE26CA4AC897003B
:101230000000E780409BAA892E8497000000E78089
:10124000809AAA842E896394A900E308B4FE371417
:101250007A00B70900201304042097000000E780FB
:10126000809883A70950330795403335E500B3854F
:101270002541B3D787026394A500E360F7FEF240EF
:101280006244D2444249B24905618280411122C47C
:1012900037040020130404009305C40306C626C2C5
:1012A000AA8497100000E780003693055403268532
:1012B00097100000E780203593055402268597108B
:1012C0000000E7804034B24022449244014541018D
:1012D000828041119305100806C622C42A84971003
:1012E0000000E780E03B8D45228597100000E780F5
:1012F000203B22859305200897100000E780403AA4
:10130000B2402244014541018280411106C691E963
:1013100097000000E780A0128947B2403E85410156
:1013200082808D468947E39AD5FEB707002005479E
:10133000238AE75097100000E780804AB707002013
:1013400023A0A752B707002003A74752814771D7B0
:1013500002978147D9B70547639DE5020327050F2B
:101360008357850EB377F70291EF09CF411181467C
:10137000014606C697100000E780203AB2400145BA
:1013800041018280B70700200547A38AE750014545
:1013900082800945828083C7150013071002638687
:1013A000E70213072002638FE70613070002639C1E
:1013B000E700370700202324F750B7170020938752
:1013C0008782232AF52601458280370700201307EC
:1013D000C7501443B71700209387878213D686001F
:1013E0002380D700A380C70013D60601E182A38122
:1013F000D700834647002381C7002328F50C2382AA
:10140000D7008346570003476700A382D700238392
:10141000E70083C7750003C76500A207D98F232E95
:10142000F50C55B783C7350003C72500A207D98F30
:10143000370700202324F75279B7B705002093859A
:1014400085509C411305F00F6386A704B717002051
:1014500003C6978283C68782370700202206558EEF
:1014600083C6A7821307C75088C1C206558E83C69C
:10147000B78293878782E206D18E14C383C6470062
:101480002302D70083C6570083C76700A302D70093
:101490002303F70001458280411106C622C426C2FB
:1014A000894723020500A300F5002300C50011CAE7
:1014B0000547630BE6080545B240224492444101CA
:1014C000828031472301E5001947A301E500A3020B
:1014D000F500B7040440AE8705472303E500A303E6
:1014E000E5002A841306C00B81453E859720000045
:1014F000E7800027056793060780A69654C1938668
:10150000044014C59386044434DD930607E0A69690
:10151000232CD50A04C18345340013070790AA87FA
:1015200026979306C5000146636BB6020346240066
:101530000567938604509387C703BA94856501476E
:101540006368C70201458DBF21472301E5001147AC
:10155000A301E500A302F500B7040050ADBF1305D9
:10156000072098C288CE05061307070291066DBFB3
:1015700094C3A4C30507938606029107AE94C9B726
:101580001C4201112EC6985F98478346D10022CC99
:10159000799B06CE26CA98C72AC40547328463952C
:1015A000E6063707100098DFD847B706E0FF9386B6
:1015B000F6FB758FD8C7D847B706F0FFFD16758FB5
:1015C000D8C7984B1367170098CB984B058B75FFBE
:1015D0000D4597100000E780A0CC0347C100854768
:1015E000631EF7001C4098471367070298C7984787
:1015F000059B98C798471367A70098C7F2406244B5
:10160000D244014505618280D84793D4050193F403
:10161000F40F13670704D8C7984B1367170098CBCC
:10162000984B058B75FF0D4597100000E78040C76C
:10163000B7072D0099C0B7073D00184051451CDF82
:1016400097100000E78040C649BF71060A062A9637
:101650008D06898250468A06AE966394B60001458F
:10166000828003C7150083C70500910522075D8F9F
:1016700083C7E5FFC2075D8F83C7F5FFE207D98FF8
:101680001CC2E1BF0D060982785D0A062E9663949E
:10169000C5002E8582801C43910593D68700238E3A
:1016A000F5FEA38ED5FE93D60701E183238FD5FEE9
:1016B000A38FF5FEE9BF184141119A0506C693E5CF
:1016C00005020CCB1C4B93F70702EDFF0D4597105D
:1016D0000000E780E0BCB240014541018280184132
:1016E000411106C6C1471CCB1C4BC18BF5FF0D45F4
:1016F00097100000E780C0BAB240014541018280E6
:101700001C457D57D8C3370700C07D17D8CB371786
:1017100000801307078098CF0347450009E7984FDB
:101720001367070198CF984FB7360C00A906558F5D
:1017300098CF984701451367170098C782801C45CA
:10174000B70600A04111D847FD1622C406C626C21E
:10175000758FD8C7D847B70600407976558FD8C758
:101760000327050C1306F67F2A842320070058451B
:101770001443F18E14C3144314C31443F19A14C3D5
:10178000034605008546631AD602144393E63600E5
:1017900014C313070008D8D33707400013070708FE
:1017A00098D7370780001307070C23A2E710130709
:1017B000001423A4E71023A6E71093048400C14576
:1017C000268597000000E78040EF268597000000FF
:1017D000E78020F15C447D57814623A8070023AAB7
:1017E000070098CF23AE07000348340013074401D5
:1017F000B70500481305F00F63ED06012285970039
:101800000000E78020F0B2402244924401454101AB
:1018100082801C4390436355060290434D8E90C3D3
:1018200023A8070088C71C4F9043635E06009043BF
:101830004D8E90C323A8070088C7850611076DBF8A
:1018400023A00700F1BF23A00700EDB758455C4374
:1018500093E727005CC3828058455C43F59B5CC3DB
:1018600082805C45920598431377F78098C398432C
:10187000D98D8CC38280984183870500411102C6AF
:101880003D8B63D9070693172700AA97DC4B854643
:10189000B396E60036C6944350451395060163445B
:1018A00005049443370534FC13050580E98E94C381
:1018B00029EF144603A8070013F56600B746000891
:1018C00093860676AA9683C60600B3E6060194C3FD
:1018D00083C6150088435A07CA06558F498FB786B5
:1018E0000010558F98C332475C4E0145D98F5CCEAE
:1018F00041018280930787008A07AA971306070190
:101900008546DC47B396C60071B7884383D6450049
:10191000C98E75BF9C4103870500BD8B63550702C7
:1019200005473317F7008A07AA97D04B1C42E17688
:10193000FD16F58F1CC25C451347F7FF0145D44FD8
:10194000758FD8CF828093860701A1078A07054744
:10195000AA973317D700D047D1BF90410111B706DE
:1019600000E03D8A93172600AA97D84B06CE1C4369
:101970003EC41C4B3EC6B247F58F3EC6DC45A5E7CC
:10198000B247B7060800D58F3EC6B2471CCB834688
:10199000450085476394F6009C4D5CCB03C8150059
:1019A0008547631CF8005C459C4793F70710B5CF4B
:1019B000A247B7060020D58F3EC4A247B7060084D1
:1019C000D58F3EC4A247D4451CC385476303F806A0
:1019D00099C658453396C700545B558E50DBF2408C
:1019E00001450561828083D645001DE663F3F6005C
:1019F000B687DCC5B247B7060800D58F3EC6B247EA
:101A0000D445D58F83C615003EC68547E39FF6F6BD
:101A1000B247B706006085BFFD17B697B3D7D702A8
:101A20003248CE07B3E70701D1BFA247B70600107F
:101A300059B78C45C206C182210597000000E78096
:101A400000C171BF9841D4453D8B930787008A0739
:101A5000AA9783A8C700B70700E003A6080003A859
:101A600008013378F80083D7450091C239E3336821
:101A7000F800B7070800B3E7070123A8F8000347F9
:101A8000450085476315F7009C4D23AAF80003C75E
:101A9000150085476318F70083C735009DC7B70752
:101AA00000205D8EB70700845D8E23A0C80001452D
:101AB00082801387F6FF3E973357F702931637015C
:101AC00033E80601B307F7027DB7B7070010D1BFAF
:101AD0009C4103870500BD8B635407028A07AA97C0
:101AE000DC4B9843635707009843B7060040558F77
:101AF00098C39843B70620000145558F98C382804C
:101B0000A1078A07AA97DC47EDB79C410387050028
:101B1000BD8B635A07028A07AA97DC4B9843B70626
:101B2000E0FFFD16758F98C303C71500854679172A
:101B30001377F70F63E7E6009843B7060010558F59
:101B400098C301458280A1078A07AA97DC47F9B7A5
:101B50005C45884FDC4F7D8D41811375F503828094
:101B6000A1058A05AA95DC4598475C45C84B798D47
:101B700082805C45884FDC4F7D8D1375F503828034
:101B80005845144B5C5B139725003A955849B3D7D9
:101B9000B7009E07084793F7F70FD58F7D8D82809A
:101BA0005C5537070860610798CB834645000547B9
:101BB000639AE60013054542C8CB9843B786008078
:101BC000558F98C382808347750091CB5C459C47B5
:101BD000858B91C70327050C1C43F19B1CC3828096
:101BE0001C45D84B058B631C0712411126C2C44B00
:101BF0009C4F06C622C44AC0FD8C638C0410939788
:101C0000C4002A8463D6070097000000E780801193
:101C10009397D40063D70700228597000000E780E0
:101C2000402085679387078033F7F40019C3184471
:101C30005CCB63DC04008347740C3707008093F7A8
:101C4000F70F2303F40C1C44D8CB93F7240081C76F
:101C50001C440947D8CB93F78400B1C783270443BA
:101C60009C4F99C322858297370900201309C952D6
:101C70008347090093F7F70F85C783470900094792
:101C8000850793F7F70F2300F9008347090063796D
:101C9000F700228597100000E780201D230009002F
:101CA0001C442147D8CB93F7040191C722859700A4
:101CB0000000E780C0229397340163D70700228594
:101CC00097000000E780002E9397240163D7070058
:101CD000228597000000E780003A9397B40063DC08
:101CE000070083270443DC4F99C3228582971C4455
:101CF00037071000D8CB9397A40063DC0700832735
:101D000004439C5399C3228582971C4437072000C3
:101D1000D8CBB24022449244024941018280828061
:101D2000397122DC26DA4AD84ED652D456D25AD04D
:101D30005ECE62CC06DE66CA2A84370A08009700A7
:101D40000000E78020E12A898144B70A0020214B66
:101D50008549994B614C7D1A63100902F250625417
:101D6000D2544259B259225A925A025BF24B624CF7
:101D7000D24C05452161828093771900C9CF93FC2D
:101D8000F40FE685228597000000E780A0DD2AC4D5
:101D9000A247858BA1CF93972400A297D8572324DD
:101DA000370183464400639F3601184B3AC6338798
:101DB0008403B246B3F64601BA9703D70727158FB7
:101DC00023AEE726E685228597100000E7802013E2
:101DD00083474400639C370191E88347C44263977B
:101DE0007701228597000000E780C0DBA247A18B26
:101DF0009DC395E0938CCA5283C70C0093F7F70FED
:101E000099CB228597100000E78020065C54238040
:101E10000C0023A4670113591900850435BF79719B
:101E200022D426D24AD04ECE52CC56CA06D65AC852
:101E30002A8497000000E78000D42A898144130A8D
:101E400000088549954A631D0900B25022549254F6
:101E50000259F249624AD24A424B054545618280A5
:101E600093771900BDC713FBF40FDA85228597001D
:101E70000000E78020D12AC6B247858B9DCB93977F
:101E80002400A297DC4BDA85228523A43701971022
:101E90000000E780201583474400639C370191E8E8
:101EA0008347C44263975701228597000000E7806B
:101EB00060CFB24793F7070889CFA68522859700A0
:101EC0000000E780C02193972400A297DC4B23A455
:101ED0004701135919008504BDB71C45011102C6FD
:101EE000984F22CC26CA4AC83D9B06CE98CF9C5319
:101EF00089462A893EC63244B2443247B24791806D
:101F00003D88C583BD8B93F4F47F6382D7029946E5
:101F10006387D70403278900F24062441C4FD244F0
:101F2000424993E707011CCF054505618280FDD03A
:101F3000F1473304F40226862A9483254427210599
:101F400097F0FFFFE780407483274427A697232A52
:101F5000F4268327C427BE94232E942665BFF14719
:101F60003304F4023D830D8B2A948347C426BD8B32
:101F7000D98FCDF3A147E39FF4F89305454221465D
:101F8000210597F0FFFFE78020708327C4270547CE
:101F9000A107232EF426B70700202386E7529DBF12
:101FA0005845411122C45C4306C626C2F99B4AC06B
:101FB0002A845CC38145210597F0FFFFE780E06F2D
:101FC000034634009307440101479306F00F636B07
:101FD000C7085C447D57854498CF41670507D8CF33
:101FE0002547D8CB84CB9843228513090004137767
:101FF000F78098C3A302040C97000000E78080BA22
:102000001C4405677146D8CB9307C4263E8581459D
:1020100097100000E780C074AA8523182427228522
:1020200097000000E78060859307840C7146814526
:102030003E8597100000E780A072130700F8231672
:10204000240D2304E40CAA85228597000000E78074
:10205000C082B2402303940C2244924402490545B5
:10206000410182808C430507910794C5CC4B94C5F0
:10207000B9BF5C4571761306F63F9847D443058394
:1020800093F6F6EFD4C3D44393E60610D4C31C45AD
:10209000D447F18ED4C7937637003747000813072B
:1020A00047763697034707008D46631ED700A30087
:1020B000E500D847896693860640558FD8C70967DB
:1020C000D8CB054582800947A300E500D84785663F
:1020D00093860640558FD8C7DDB7F147B387F50221
:1020E00079714ECE06D622D426D24AD052CC56CAC8
:1020F0005AC8AA9703A7470D83A6870D83D7C70C95
:102100005EC662C4158FAA896373F700BA877144EB
:1021100033848502854A8D07B39ABA00139B250044
:10212000C16B13DA270093CAFAFF4E9BFD1B4E9436
:1021300013F9F50F138C890083274B01984F3377E0
:1021400077016378EA000327840D8327440D636FCA
:10215000F700B250225492540259F249624AD24ACC
:10216000424BB24B224C0545456182808354C40CDE
:10217000998F63F39700BE848325040D9396040121
:1021800093873400C1824A86628513DA270097F06C
:10219000FFFFE780C04B8327840D0327040D26979C
:1021A000BE948327440D2328E40C232C940CE39540
:1021B000F4F883A7C900D85B33775701D8DBADBFEC
:1021C0004111014506C697E0FFFFE780A05B377726
:1021D000DC02B7070020130707C093870753631774
:1021E000E5023707400098C38D46371700202328A3
:1021F000D782884397E0FFFFE7808057B2401305FE
:10220000C050410117E3FFFF6700035537A74A0499
:10221000130707206318E50023A0070037170020E5
:102220009546F1B737E7B80513070780E313E5FCD8
:102230003707C00098C39D46371700204DBF411196
:10224000014685451305600506C697E0FFFFE78058
:1022500040361305C07197E0FFFFE780E04F370578
:10226000040097E0FFFFE780004301468145370502
:10227000040097E0FFFFE78000373705040097E090
:10228000FFFFE7804040B24001468D451305D00373
:10229000410117E3FFFF6700C3318280170300008D
:1022A0006700830E170300006700E3063705002070
:1022B00013058506170300006700C392411122C46D
:1022C0003704002006C69307840683C777008DCBAA
:1022D00097000000E7804024B707002003A50753BC
:1022E00097E0FFFFE780C0481305C05097E0FFFF6D
:1022F000E78080461305840697000000E780E08CA5
:102300002244B24037050400410117E3FFFF670094
:102310008338011122CC4EC652C406CE26CA4AC802
:10232000AA8997F0FFFFE780008C2A8A2E8497F015
:10233000FFFFE780408BAA842E896314AA00E3087C
:10234000B4FE0564370A0020130404FA97F0FFFF77
:10235000E780608983270A50330795403335E500CD
:10236000B3D78702B3852541B38737036394A500AC
:10237000E36EF7FCF2406244D2444249B249224A39
:1023800005618280011122CC4EC652C406CE26CAF7
:102390004AC8AA8997F0FFFFE780E0842A8A2E8442
:1023A00097F0FFFFE7802084AA842E896314AA0097
:1023B000E308B4FE37143D00370A002013040490EC
:1023C00097F0FFFFE780208283270A50330795406C
:1023D0003335E500B3D78702B3852541B38737038B
:1023E0006394A500E36EF7FCF2406244D244424994
:1023F000B249224A05618280411106C69700000059
:10240000E78080117350003297E0FFFFE78080196A
:10241000094597E0FFFFE780401997000000E7803B
:1024200060DA97000000E78080E797000000E7800F
:1024300040E1B2403706002037050020130646046D
:102440008545130585064101170300006700633DBC
:10245000B70700209387870603C5670C75151335EA
:102460001500828001114AC84EC606CE22CC26CA6B
:1024700052C456C2AE89328997E0FFFFE780A0764A
:102480009307002063F4270113090020E16493847B
:10249000046AAA94370A002033B5A400D28A330410
:1024A000B50083475A5199EB97E0FFFFE780A0738F
:1024B000E3E985FE6314B400E36595FE370600206A
:1024C000A38A0A50014493078654631B240393167E
:1024D000040137050020C1821306865493051008B5
:1024E0001305850697000000E78020232285F2402F
:1024F0006244D2444249B249224A924A05618280EA
:10250000338789008346070033878700050423004B
:10251000D70065BFB71702409843B706FFE0B10682
:102520001367170098C3D843758FD8C39843B7066D
:10253000F7FEFD16758F98C39843B706FCFFFD168E
:10254000758F98C3D843B70601DFFD16758FD8C3C2
:1025500023A607029843B706F7EAFD16758F98C3BE
:102560003707FF0098C794434167D98E94C39307F8
:10257000F7FF3717024014431396E6006344060042
:10258000FD17F5FBB717024098439316E70063C3A6
:10259000060001A0D843B706C4DFFD16D8C3D84350
:1025A000D8C3D84313670740D8C3D843758FD8C35F
:1025B000D843B7061D20558FD8C3D857BD76758F21
:1025C000D8D7D857B706000113671700D8D7984354
:1025D000558F98C3B7170240984393166700E3DD01
:1025E00006FED843719BD8C3D84313672700D8C3CE
:1025F000371702405C43A18BF5DF17E3FFFF67004D
:10260000C33D411106C603C7550083C7450003C635
:10261000250022075D8F93178601E18763D20706A5
:10262000F1479376F607B386F6029387860CAA964F
:1026300003C8860CAA97136808F82384060D83C67E
:1026400007003D8A1377F70FC19A558E2380C70084
:102650002392E70003C73500BE850D8B9316270034
:10266000370700081307C73636971843A380E700DB
:1026700097F0FFFFE7806020B24001454101828072
:10268000F146B306D6029387C626AA9603C8C62685
:10269000AA971378F8072386062755B74111939711
:1026A000850106C6E18763D2070293F5F507F14776
:1026B000B385F5029385850CAA9597F0FFFFE78017
:1026C000A025B240014541018280F147B385F50262
:1026D0009385C526D5B793F7F507F145B387B702BC
:1026E000411106C605479385C726AA9723AAC72680
:1026F00023ACD72623AE072683464500AA956394CC
:10270000E60023A2C72897F0FFFFE780E033B2403E
:1027100001454101828093F7F507F145B387B70280
:10272000411106C605479385870CAA9723A8C70CB5
:1027300023AAD70C23AC070C83464500AA956394C3
:10274000E60023A0C70E97F0FFFFE7804021B240CC
:1027500001454101828041119397850106C6E187B9
:1027600063D5070293F5F507F147B385F502938525
:10277000850CAA9585472381F50097F0FFFFE78038
:102780006035B240014541018280F147B385F502D1
:102790009385C526F9BF41119397850106C6E18748
:1027A00063D4070293F5F507F147B385F5029385E6
:1027B000850CAA952381050097F0FFFFE78020355F
:1027C000B240014541018280F147B385F50293850E
:1027D000C526C5B717F3FFFF6700E308F147B385C8
:1027E000F502AA9503D5C5278280411106C697F048
:1027F000FFFFE780A006B2400D454101170300002E
:10280000670083AA411106C697F0FFFFE7804004E6
:10281000B2400D454101170300006700E3A84111D4
:1028200006C622C426C2930485002328C5422E86EC
:10283000A6852A8497F0FFFFE78040C64C400840F9
:10284000268697F0FFFFE780E0D3228597000000FF
:10285000E78080FB228597F0FFFFE78080EE2285EE
:1028600097000000E780A0F885472303F40CB240EE
:1028700022449244410182800545828003254541DE
:10288000834705002310F600828003258541834796
:1028900025002310F6008280832705428A05AE9723
:1028A0008843834705002310F6008280411122C42B
:1028B00026C206C683C705002A84AE848D8B8DCFC1
:1028C00005476385E70C0327C40D054561C783C72A
:1028D000740083C66400A207D58FCDCF6371F70C57
:1028E0008357C40C01456367F70A3375F70255E94E
:1028F0008547A306F44279A883C7250083C5350020
:102900000947A205DD8D93D7850093F5F50F638CFC
:10291000E704636BF7020547E397E7FA1306C50D73
:1029200097000000E780C0F52328A40C83C774003B
:1029300003C76400A207D98F13070004E395E7F8E3
:10294000A147232EF40C41B70D476387E7023D47AB
:10295000E39BE7F68327C54103C727002328F50C2F
:10296000231EE50C8DB71306C50D97000000E78008
:1029700000F22328A40C81BF9547E3E6B7F41306C1
:10298000C50D97000000E78060F1E5B78327054398
:10299000DC478297B2402244924441018280232E38
:1029A000F40C0145C5BF41114AC006C622C426C267
:1029B00083C7250037090020130949532300F90074
:1029C000854663EDF6000347650C89442A84137736
:1029D000F70F630797000D466309C702854439A8BE
:1029E000814489CF832705438545DC43829783470C
:1029F00009002302F40C8D472303F40CB240224457
:102A00002685024992444101828091EF8327054344
:102A100081459C478297834709002303940C814496
:102A20002302F40CE1BF8347450C8144E388D7FCC3
:102A30008327054385459C47829783450900832763
:102A4000044322852302B40CDC43829745BF83C62E
:102A5000550003C7450003C60500A206D98E0D8A9E
:102A60008545AA8713F7F60F6303B60411C6894597
:102A70006302B606054582800347650C8946638874
:102A8000E6000347650C8D4605456394E60483C65E
:102A9000274103C7074189C6B336E00093E6260005
:102AA00037070020130787532300D70029A8834640
:102AB000650C0D460545631ED600636CE5003707BF
:102AC00000201307875323A8E70C094723AEE70C20
:102AD000014582800346650C8D450545E39BC5FE97
:102AE000E206E18663DB0600F1461377F70733075A
:102AF000D7023E978346A70C65B7F1463307D70246
:102B00003E978346E72669BF0347650C8946AA8737
:102B10001377F70F6307D7008D466301D70205458A
:102B200082800347450C054565FF1387470C23A8A2
:102B3000E70C054723AEE70C014582800347450CAF
:102B400079DFE5B78347650C0D476311F70203C7CB
:102B50004500854763EAE70003270543232EF50C6C
:102B6000814705072328E50C3E8582808547EDBF18
:102B70008347650C0D476310F70203C7450085477F
:102B800063E9E7008327054303C72500A380E70027
:102B900081473E8582808547EDBF03C7550083C6C8
:102BA00045002207558F01CB054582800545B2407F
:102BB00022444101828003C7750083C66500220755
:102BC000558F7DF3411122C406C683C525000347F6
:102BD000650C8D4693F5F507A302B50C2A84E387AF
:102BE000E6FC97000000E78020BF8347540C91C7A4
:102BF00089472303F40C01455DBF8547DDBF4111C3
:102C000006C622C483C705002A878D8B8DCF8946CF
:102C100005446391D7068347650C0D470544631B44
:102C2000F70483C7350003C725000144A207D98FE5
:102C3000B1E383C5450093F7F5078DCF97000000FA
:102C4000E780A0B105A88347650C89466388F60034
:102C50008347650C8D460544639EF60083C73500A7
:102C600083C625000144A207D58F85466394D7000B
:102C70002309F7402285B24022444101828041115C
:102C800026C206C622C44AC003C70500AA840D8B0B
:102C900029C7894605496319D7060347650C8D4640
:102CA00005496393E60603C7350083C6250001493D
:102CB0002207558F31EB03C745009376F707A9C666
:102CC0002E84BA8597000000E78020AD83A70443D7
:102CD000A2852685DC47829705A80347650C8946AF
:102CE0006388E6000347650C8D460549639EE60050
:102CF00003C7350083C6250005492207558F631594
:102D00002701238904400149B24022444A85924464
:102D1000024941018280014582800145828083C74A
:102D2000150013972700B70700089387C737BA978E
:102D300003A3070002838346650C0D468547631095
:102D4000D60283C64500854763EBD700832705433A
:102D5000411106C6DC478297B240410182803E8520
:102D600082800145828041119305000806C622C475
:102D70002A8497000000E780409E228581459700C5
:102D80000000E780809D22852244B240410117F374
:102D9000FFFF670023E18356C50D0326050D411192
:102DA000814522C406C62A8497000000E780E09689
:102DB0000357C40C8326C40D89476373D700854726
:102DC0002306F442B24022440145410182808356E9
:102DD0000528032645274111814522C406C62A84B9
:102DE00097000000E780608F03570427832604289C
:102DF00091476373D7008D472306F442B2402244C3
:102E0000014541018280411106C622C4954723062F
:102E1000F5428146014681452A8497000000E780FB
:102E2000C08F228597F0FFFFE780C0D7B2402244D1
:102E3000014541018280411106C622C499472306FB
:102E4000F5428146014681452A8497000000E780CB
:102E5000C088228597F0FFFFE780C0D4B2402244AB
:102E600001454101828083274542032785420111A4
:102E700022CC3EC43AC606CE93F7070613070002DB
:102E80002A84638AE70213070004638CE702B9EF20
:102E90002C0097000000E780C0E829E98357E10093
:102EA0009DE7228597000000E78020F6F24062440B
:102EB0000145056182802C0097000000E780E0E773
:102EC000E9BF2C0097000000E780E0E9F9B783072D
:102ED0008100228563D7070097000000E780E0EBC0
:102EE000F1B797000000E780C0EEC9B72C0022853B
:102EF00097000000E78060E755BF797106D622D4BD
:102F00000018232EA4FCAE87A30DF4FC8347B4FD68
:102F1000C1EB8327C4FD9387C7262326F4FE8327AE
:102F2000C4FD83C7C7420D476386E7001147638628
:102F3000E7024DA08327C4FEDC4B0327C4FE0357E2
:102F400047003387E7408327C4FED8CB0325C4FD61
:102F500097000000E780E0E7B5A88327C4FD83C79A
:102F6000670C13F7F70F8D476311F7028327C4FD32
:102F700083A70743DC4B91CB8327C4FD83A707437B
:102F8000DC4B81450325C4FD82978327C4FE23AA19
:102F900007000325C4FD97000000E78000E71DA897
:102FA0008327C4FD83A70743DC4B8DC78327C4FD5C
:102FB00083C7670C13F7F70F8D47631DF70083274F
:102FC000C4FD83A70743D84B8347B4FDBE850325C3
:102FD000C4FD029781473E85B250225445618280EC
:102FE000797106D622D40018232EA4FCAE87A30D37
:102FF000F4FC8347B4FDDDEB8327C4FD9387870C86
:103000002326F4FE8327C4FD83C7C7420547638692
:10301000E70009476386E702E1A08327C4FEDC4B93
:103020000327C4FE035747003387E7408327C4FEC6
:10303000D8CB0325C4FD97000000E78000D64DA043
:103040008327C4FD83C7D74299CF81460146814576
:103050000325C4FD97F0FFFFE780206C8327C4FDA4
:10306000A3860742B5A88327C4FD83C7670C13F75F
:10307000F70F8D476311F7028327C4FD83A707432A
:103080009C4B91CB8327C4FD83A707439C4B814571
:103090000325C4FD82978327C4FE23AA07000325C6
:1030A000C4FD97000000E78040D91DA88327C4FD18
:1030B00083C7670C13F7F70F8D476313F702832756
:1030C000C4FD83A707439C4B81CF8327C4FD83A7FF
:1030D0000743984B8347B4FDBE850325C4FD029783
:1030E00081473E85B2502254456182800000000035
:1030F00000000000000000000000000000000000D0
:103100005D7106C012C216C41AC61EC82ACA2ECCC9
:1031100032CE36D03AD23ED442D646D872DA76DCB7
:103120007ADEFEC0F322103496C0F322003096C23D
:10313000F322407C96C4732520348A8597E0FFFFF4
:10314000E780E0BE8642739012349642739002305C
:10315000A6427390427C82401242A2423243C24352
:103160005245E245724682561257A2573258C2580B
:10317000525EE25E725F864F616173002030000034
:10318000000000005D7106C012C216C41AC61EC837
:103190002ACA2ECC32CE36D03AD23ED442D646D8E7
:1031A00072DA76DC7ADEFEC073D0E87E7350F97E88
:1031B00073D0B97EF390D07E73700430B6427390B2
:1031C000427CA6427390123496427390223482401D
:1031D0001242A2423243C2435245E24572468256EF
:1031E0001257A2573258C258525EE25E725F864F43
:1031F000616173002030AA8581460146014517139D
:1032000000006700E38D411122C406C69717000035
:103210009387C7952A8491C7814597100000E7805E
:10322000E094971700009387675488431C5591C317
:103230008297228597E0FFFFE780C08683D7C5008D
:10324000011122CC26CA06CE4AC84EC613F7870003
:10325000AA842E847DE7D8416347E000B8416344E7
:10326000E0000145D9A058546DDF03A904009396EE
:10327000370123A0040063D1060868488357C400BF
:10328000918B99C75C401D8D5C5899C33C401D8D46
:103290005C540C502A86814626858297FD57035739
:1032A000C400631DF5009440F54763E7D708B707EE
:1032B00040208507B3D7D700858BBDCF1C4823227C
:1032C00004001CC09317370163D80700FD5763142F
:1032D000F5009C4091E368C84C5823A02401D1D14B
:1032E000930744046387F500268597000000E78074
:1032F0002048232A0402B5B70C508546014626858E
:103300000297FD57E31CF5F69C40ADDB75476385DE
:10331000E70059476395E70023A0240199B7835735
:10332000C40093E707042316F400F2406244D24439
:103330004249B24905618280136707042316E400FD
:10334000EDB783A90501E38E09F003A905008D8B74
:1033500023A0350133093941014791E3D84918C405
:10336000E35120F11C540C50CA864E862685829764
:10337000634AA0008357C4007D5593E707042316D2
:10338000F40065B7AA993309A940D9BF9C49ADC7D4
:10339000011122CC06CE2A8409C91C4D99E72EC6FC
:1033A00097000000E780A015B24597D7FFFF9387ED
:1033B000E705639EF5004C408397C5008DCB2285C1
:1033C0006244F240056117030000670063E797D786
:1033D000FFFF9387A7056394F5000C44F1BF97D7CF
:1033E000FFFF9387A700E399F5FC4C44F1B7F24047
:1033F000624401450561828001458280AA8511ED04
:1034000097170000938787368843970500009385B8
:1034100025F8170300006700E32597D7FF17938768
:10342000E70F884317030000670083F6411122C4A9
:1034300006C62A842316B5002317C50023200500DD
:103440002322050023240500232205062328050046
:10345000232A0500232C0500214681451305C505B7
:1034600097000000E780C02F97070000938727543C
:103470005CD0970700009387E7561CD4970700009D
:103480009387E75B5CD4970700009387075F00D0C2
:103490001CD8B240224441018280970500009385E8
:1034A00025EF170300006700E31C411126C2130635
:1034B00080069384F5FFB384C4024AC02E8922C4D7
:1034C00006C69385440797000000E780E0352A840C
:1034D00011CD2320050023222501310508C41386C0
:1034E0008406814597000000E78080272285B2404E
:1034F000224492440249410182801C4DC9E7411196
:1035000006C622C497070000938767F91CD5971752
:1035100000009387A7259C43232405042326050444
:10352000232805046314F50085471CCD2A849700E1
:103530000000E780A00548C0228597000000E780D2
:10354000E00408C4228597000000E780200448C4F6
:1035500048400146914597000000E78060ED08442F
:103560000546A54597000000E78080EC48440946E1
:10357000C94597000000E780A0EB85471CCCB2400E
:103580002244410182808280411197170000938775
:10359000E71D26C284434AC006C69C4C22C42A8921
:1035A00091E7268597000000E78060F59384840406
:1035B0008044DC40FD1763D607009C40ADC38440C7
:1035C000C5BF0317C40029EBC17785072322040672
:1035D0002320040023220400232404005CC42328A5
:1035E0000400232A0400232C0400214681451305EE
:1035F000C40597000000E780A016232A0402232CAC
:10360000040223240404232604042285B240224415
:1036100092440249410182801304840661BF9145AE
:103620004A8597000000E78080E888C02A8441F935
:10363000B1472320F900D1BF4111971700009387AC
:10364000271322C417140000130484121D8C26C2F1
:1036500006C60984BE8411E4B2402244924441016A
:1036600082807D1493172400A6979C438297E5B728
:10367000797122D44AD052CC56CA5AC85EC606D6F0
:1036800026D24ECE2A8AAE8A130485040149054B00
:10369000FD5B09ECB25022544A8592540259F2491A
:1036A000624AD24A424BB24B45618280044483292C
:1036B0004400FD1963D409000040E1BF83D7C40072
:1036C000637BFB008397E40063877701A6855285BF
:1036D000829A3369A90093848406E1BF4111971748
:1036E00000009387E70822C417140000130444085D
:1036F0001D8C26C24AC006C6098481443E89639651
:103700008402971700009387A7061714000013047C
:1037100024061D8C098481443E89639F8400B24045
:103720002244924402494101828093972400CA971F
:103730009C4385048297E1B793972400CA979C43E2
:1037400085048297D9BF2A8309CA83830500230091
:1037500073007D16050385056DFA82802A8311C6E4
:103760002300B3007D16050365FE8280DDC983A7B3
:10377000C5FF411122C406C626C21384C5FF63D308
:1037800007003E94AA8497000000E780A05197D7D5
:10379000FF179387E7DA9C4385E32322040097D73A
:1037A000FF1723AF87D82244B240268592444101B7
:1037B000170300006700234F637EF40014403307B3
:1037C000D4006396E7009843DC43369718C05CC08A
:1037D000F9B7BA87D84319C3E37DE4FE944333862F
:1037E000D700631F86001040B29694C33386D7007B
:1037F000E31BC7FA10435843B29694C3D8C365B7C6
:103800006375C400B1479CC079BF1040B306C400C3
:103810006316D70014435843B29614C058C0C0C3AF
:1038200059B78280011126CA93843500F19806CEDB
:1038300022CC4AC84EC6A104B14763F3F406B14492
:1038400063E2B4062A8997000000E780A04597D775
:10385000FF179387E7CE98433A8439EC97D7FF1741
:10386000938747CE9C4399EB81454A85970000009A
:10387000E780801097D7FF1723A6A7CCA6854A8597
:1038800097000000E780400FFD59631F3507B147DF
:103890002320F9004A8597000000E780C04029A056
:1038A000E3D004FAB1471CC10145F2406244D2445E
:1038B0004249B249056182801C40858F63C3070479
:1038C000AD4663F6F6001CC03E9404C001A85C40FF
:1038D0006317870217D7FF172324F7C64A85970077
:1038E0000000E780403C1305B40093074400619951
:1038F0003307F5405DDB3A94898F1CC07DB75CC30C
:10390000F1BF2287404091BF130435007198E30E48
:1039100085FAB305A4404A8597000000E780C005FA
:10392000E31535FBADB739713EDA2ED232D436D637
:103930003AD842DC46DE97D7FF17938727BE22CCC2
:10394000804326CA06CEAA8401C81C4C91E7228572
:1039500097000000E780A0BA0C4454102686228508
:1039600036C697000000E780803BF2406244D244B4
:1039700021618280411122C42A842E8597D7FF17A6
:1039800023AC07EA06C697D0FFFFE780201BFD5750
:103990006319F50097D7FF17938707EA9C4391C3F4
:1039A0001CC0B240224441018280411122C42E84B5
:1039B0008395E50006C697000000E78040626349F2
:1039C00005007C48AA977CC8B2402244410182800D
:1039D0008357C4007D777D17F98F2316F400EDB768
:1039E00083D7C500011122CC26CA4AC84EC606CECE
:1039F00093F70710AA842E843289B68989CB8395E0
:103A0000E5008946014697000000E78000268357BD
:103A1000C4007D777D17F98F2316F4008315E40029
:103A20006244F240CE864A86B24942492685D24453
:103A300005611703000067000307411122C42E84AB
:103A40008395E50006C697000000E7800022FD5739
:103A50000357C400631BF500FD77FD17F98F23168C
:103A6000F400B2402244410182808567D98F231639
:103A7000F40068C8FDB78395E500170300006700F0
:103A8000631B17D3FFFF6700030997D7FF179387BF
:103A9000E7A8B2862E86AA85884317030000670030
:103AA0008300411122C42A842E85B285368697D799
:103AB000FF1723A307D806C697F0FFFFE780C09A39
:103AC000FD576319F50097D7FF179387E7D69C43F7
:103AD00091C31CC0B24022444101828097D7FF1796
:103AE000938787A69C432A8E8DE717D7FF17130766
:103AF000E7C597D7FF1723A9E7A417C5FFF7130555
:103B00006550BA8719C51C4117D5FF172324F5CC7A
:103B1000BA87D8437D487D556347E804630E0E029B
:103B200003A887086301080493182700C29823A0FC
:103B3000C8000323081005463316E6003363C300AC
:103B40002320681023A0D80889466317DE00832647
:103B50004810558E2322C810930617000A07D4C3B5
:103B6000BA978CC701458280797152CC56CA5AC81F
:103B70005EC606D622D426D24AD04ECE62C42A8B46
:103B80002E8A97DAFF17938A2A9C854B03A40A0092
:103B900011C84440832984081389F4FF8A04A2943D
:103BA000635E0900B250225492540259F249624AAB
:103BB000D24A424BB24B224C45618280630E0A00CE
:103BC000639509007D19F114E1BF93172900CE9781
:103BD00083A70708E39847FF5840DC407D17631828
:103BE000270323222401F9DF032C44006388090002
:103BF00083A6091033972B01F98E89EE82975840DE
:103C000083A70A00E31487F9E30EF4FA41B723A26D
:103C10000400D1BF93162900CE968C4283A649108A
:103C2000758F01E75A858297D9BF2E858297C1BFCC
:103C3000411122C42A842E8597D7FF1723AE07BED1
:103C400006C697D0FFFFE780A0EAFD576319F5008D
:103C500097D7FF17938747BE9C4391C31CC0B240C0
:103C6000224441018280411122C42A842E85B285DA
:103C7000368697D7FF1723A107BC06C697D0FFFF4C
:103C8000E780E0E9FD576319F50097D7FF179387A1
:103C9000A7BA9C4391C31CC0B24022444101828018
:103CA000828082801C46FD171CC663DC0700184E0C
:103CB00063C5E700A9476396F50017030000670096
:103CC000A3351C422E851387170018C22380B70026
:103CD0008280011122CC26CA4AC84EC652C406CEE2
:103CE0002A89AE893284B304D6007D5A63149400C5
:103CF000014521A8834504004E864A8597000000AF
:103D0000E78080FA0504E31345FFF2406244D244A1
:103D10004249B249224A05618280357122CD26CBC3
:103D20004AC94EC706CF52C556C35AC1DEDEE2DCD1
:103D3000E6DAAA89AE843289368419C51C4D89E732
:103D400097F0FFFFE780A07B97C7FFFF9387076C83
:103D50006391F40E83A4490083D7C400A18BE5CFFF
:103D60009C48F5CB93070002A304F10293070003DC
:103D700002D22305F10222C6930B500297CAFFFF1D
:103D8000938ACA6C054C294B4A848347040099C323
:103D90006398770FB30C244163800C02E6864A8651
:103DA000A6854E8597000000E780E0F2FD5763018D
:103DB000F5209256E69636D283470400638A071EA2
:103DC000FD571309140002C802CE3ECA02CCA30953
:103DD000010482D4834509001546568597000000EA
:103DE000E780E05313041900C24749ED13F70701B8
:103DF00009C713070002A309E10413F7870009C7E5
:103E00001307B002A309E104834609001307A002C7
:103E10006382E608F2474A84814625460347040048
:103E200093051400130707FD637BE60AA5CE3ECE7B
:103E300095A897C7FFFF9387675F6395F40083A4F6
:103E4000890019BF97C7FFFF9387475AE396F4F09D
:103E500083A4C90011B7A6854E8597000000E780AE
:103E6000202909D17D55FA406A44DA444A49BA49C1
:103E70002A4A9A4A0A4BF65B665CD65C0D618280E0
:103E8000050421B7330555413315AC00C98F3EC831
:103E9000228989B7324793064700184336C66349DB
:103EA00007023ACE034704009307E002631FF704BA
:103EB000034714009307A002631BF702B2470904EB
:103EC000138747009C433AC663C107023ECA35A820
:103ED0003307E04093E727003ACE3EC8E1B7B38707
:103EE000670385462E84BA9715BFFD57C5B70504ED
:103EF00002CA814681472546034704009305140002
:103F0000130707FD637CE606F1F2834504000D46C6
:103F100017C5FFFF1305055497000000E7802040F8
:103F200011CD97C7FFFF9387E7521D8D93070004BC
:103F3000B397A700424505045D8D2AC88345040058
:103F4000194617C5FFFF1305255113091400230453
:103F5000B10297000000E780803C3DC197C7FFF7A2
:103F60009387470A95E74247B2471377071009CF6F
:103F700091073EC69257D2973ED239B5B3876703B1
:103F800085462E84BA978DBF9D07E19BA107D5B7C3
:103F9000780097060000938606D426860C084E8586
:103FA00097000000E7000000FD572A8AE314F5FCA3
:103FB00083D7C40093F70704E39607EA125565B563
:103FC000780097060000938606D126860C084E8559
:103FD00097000000E7800047C1BF411122C42A8436
:103FE0002E85B285368697D7FF1723A7078406C686
:103FF00097D0FFFFE78040B4FD576319F50097D7CE
:10400000FF17938767839C4391C31CC0B24022442F
:1040100041018280011122CC26CA4AC806CE4EC672
:10402000AA842E89328419C51C4D89E797F0FFFFB9
:10403000E780E04C97C7FFFF9387473D631FF40677
:10404000C0401C4C1CC48357C400A18BD9C71C485A
:10405000C9C71C4808409379F90F1379F90F1D8DD2
:104060005C486349F500A285268597F0FFFFE7804D
:1040700020323DE91C440505FD171CC41C40138774
:10408000170018C0238037015C486389A700835755
:10409000C400858B99CBA9476319F900A2852685B1
:1040A00097F0FFFFE780C02E21E1F24062444A858D
:1040B000D2444249B2490561828097C7FFFF938786
:1040C000E7366314F4008044ADBF97C7FFFF9387C2
:1040D000E731E318F4F6C044ADB7A2852685970012
:1040E0000000E780E00035D57D59C1B7411197C781
:1040F000FF179387A74226C2844322C44AC006C63C
:104100002A892E8481C89C4C91E7268597F0FFFF71
:10411000E780E03E97C7FFFF9387472F631CF402B9
:10412000C0400317C40093170701C18393F68700AB
:10413000C9E293F607019DEEA5472320F900136716
:1041400007042316E4007D55B240224492440249FC
:104150004101828097C7FFFF9387472D6314F400C6
:104160008044C1B797C7FFFF93874728E31BF4FA42
:10417000C04445BF918B85CB4C5881CD93074404F7
:104180006387F5004A8597F0FFFFE780605E232A8A
:1041900004028357C4002322040093F7B7FD2316BB
:1041A000F4001C481CC08357C40093E78700231603
:1041B000F4001C4899EF8357C4001307002093F7BD
:1041C00007286388E700A2854A8597000000E780FA
:1041D000200A8357C40013F7170005C75C4823243F
:1041E0000400B307F0401CCC1C480145B1FF831705
:1041F000C40013F7070829DB93E707042316F4002C
:1042000099B7898B014791E3584818C4F1BF1971D8
:10421000A6DAAE848395E500A2DC86DE328463DC18
:10422000050083D7C40023A0060093F7070895E78D
:10423000930700402DA0300836C697000000E780A5
:10424000404BB246E34F05FC7247BD67F98F797763
:10425000BA9793B717009CC2E1BF930700041CC034
:10426000F6506654D65401450961828083D7C50053
:10427000011122CC06CE26CA4AC8898B2E8489CF4A
:10428000930774041CC01CC885475CC8F240624494
:10429000D24442490561828074003000AA849700AC
:1042A0000000E78000F7A2452A89268597F0FFFFE6
:1042B000E780805701ED8317C40013F7072079F7D3
:1042C000F19B93E727002316F4005DBF97F7FFFFEC
:1042D0009387E71C9CD48357C40008C008C893E7A1
:1042E00007082316F400A2475CC8B24785C38315AC
:1042F000E400268597000000E780204301C983572A
:10430000C400F19B93E717002316F4008357C40001
:104310003369F9002316240195BF93F5F50F2A960A
:104320006314C5000145828083470500E38DB7FE15
:104330000505FDB7797156CA9C49BA8A984522D4B9
:1043400026D24ECE52CC06D64AD05AC85EC6AA89CC
:104350002E84B284368A63D3E700BA879CC00347B1
:10436000340419C385079CC01C4093F7070281C71A
:104370009C4089079CC00329040013796900631AD3
:104380000900130B9401FD5B5C449840998F634CCA
:10439000F9041C408346340493F70702B336D00077
:1043A000A5EB13063404D2854E85829AFD5763032C
:1043B000F5041C4011469840998B544481446397FE
:1043C000C700B384E64063D3040081441C4418480A
:1043D0006354F700998FBE94014969047D5B63982B
:1043E0002405014509A885465A86D2854E85829ABC
:1043F000631E75017D55B250225492540259F24900
:10440000624AD24A424BB24B456182800509ADBF38
:104410003307D40013060003A301C7040347540461
:1044200093871600A2978906A381E7049DBF85465E
:104430002286D2854E85829AE30E65FB050945B733
:10444000797122D426D24AD04ECE06D652CC56CA44
:104450005AC8B68983C685019307E0063289AA84C3
:104460002E84138635046383F61E63E2D706930712
:1044700030066382F60A63EDD700638D061E93074C
:1044800080056389F616930A24042301D40469A8DD
:10449000930740066386F60093079006E395F6FEC1
:1044A0001C40084393F6070893054500C1C21C4110
:1044B0000CC363D807001307D002B307F040A30171
:1044C000E40497C6FFFF9386A6F9294765A09307E2
:1044D00030076385F61A63EFD7009307F006638F02
:1044E000F60493070007E390F6FA9C4193E707026E
:1044F0009CC109A8930750076382F60493078007BD
:10450000E393F6F893078007A302F40497C6FFFF2E
:10451000938646F6F5A01C43938A250493864700AC
:104520009C4314C32381F50485479DAA93F6070491
:104530001C410CC3BDDEC207C187A5BF0C401C4394
:1045400013F80508138547006305080008C39C435A
:1045500039A093F5050408C3FDD983D707001307D5
:10456000F006638DE60C97C6FFFF938666EF29473A
:10457000A30104044C400CC463C5050008406D99B8
:1045800008C099E3B28A91CDB28AB3F5E702FD1A69
:10459000B69583C505002380BA00B3D5E70263F55D
:1045A000E70AA147631EF7001C40858B91CB58405A
:1045B0001C4863C7E70093070003A38FFAFEFD1AA8
:1045C0003306564110C84E87CA867000A2852685DC
:1045D00097000000E78040D67D5A6317450D7D5552
:1045E000B250225492540259F249624AD24A424B82
:1045F00045618280A382D50497C6FFFF938646E675
:104600000C40084313F805081C411105630008021B
:1046100008C313F7150001C793E505020CC0414715
:10462000A1FB0C4093F5F5FD0CC099B713F80504F8
:1046300008C3E30008FEC207C183E1BF97C6FFFFBE
:10464000938606E221472DB7AE8781B794411C437C
:10465000CC4913F80608138547006306080008C311
:104660009C438CC301A808C393F606049C43F5DA67
:104670002390B70023280400B28AB1B71C43D0416D
:1046800081459386470014C383AA07005685970087
:104690000000E780C0C801C53305554148C05C40F3
:1046A0001CC8A301040405B714485686CA8526858C
:1046B0008299E30645F31C40898B8DE7B247484455
:1046C000E350F5F23E8529BF85465686CA85268584
:1046D0008299E30665F1050A5C443247998FE34508
:1046E000FAFEE9BF014A930A94017D5BF5B74111D7
:1046F00022C42A842E85B28597C7FF1723AE0712DE
:1047000006C697C0FFFFE780E03EFD576319F5003E
:1047100097C7FF17938747129C4391C31CC0B240B1
:10472000224441018280411122C42A842E8597C7E8
:10473000FF1723A3071006C697C0FFFFE780A03D21
:10474000FD576319F50097C7FF179387E70E9C4342
:0C47500091C31CC0B24022444101828091
:04475C000403090445
:044760000000030052
:044764000302010249
:044768009C0400208D
:10476C000902430002010080320904000001020228
:10477C00000005240010010524010001042402029C
:10478C0005240600010705820308000A090401003C
:10479C00020A000000070503024000000705810221
:1047AC0040000000FF0000008C120008D21200082C
:1047BC0096130008561300080A13000800000000A6
:1047CC0000000000000000000000000000000000DD
:1047DC0000000000000000000000000000000000CD
:1047EC0000000000000000000000000000000000BD
:1047FC0000000000000000000000000000000000AD
:104BDC000000000000000000000000004803000876
:104BEC0000000020000000005C0300080000000032
:104BFC0000000000000000000000000000000000A9
:104C0C000804000828040008E8030008000000005D
:104C1C000000000000000000000000000000000088
:104C2C000000000000000000000000000000000078
:104C3C000000000000000000000000000000000068
:104C4C000000000000000000000000000000000058
:104C5C000000000000000000000000000000000048
:104C6C0000F36F0638080020FF00000000C20100AE
:104C7C0000000800010100009C040020000000005E
:040000050800015C92
:00000001FF
